:020000040040BA
:10000000502B4020C5044000C3044000C3044000FE
:10001000C3044000C3044000C304400000000000CB
:10002000000000000000000000000000C3044000C9
:10003000C304400000000000C30440006D104000F5
:10004000C3044000C3044000C3044000C304400094
:10005000C3044000E3104000C3044000C304400058
:10006000C304400000000000FD01400011024000F8
:1000700000000000C3044000C3044000C30440006B
:100080002502400000000000C3044000C3044000FB
:10009000DD0E4000E1104000C3044000C3044000F6
:1000A000C3044000C3044000000000000000000042
:1000B00000000000C304400000000000C304400032
:1000C000E5104000C3044000C304400000000000ED
:1000D0000000000000000000000000000000000020
:1000E000C3044000C3044000C3044000C3044000F4
:1000F000C3044000C3044000C304400000000000EB
:100100000000000000000000C3044000C3044000E1
:10011000C3044000000000000000000000000000D8
:10012000C3044000C3044000F10F4000C30440007A
:10013000C30440000000000000000000C3044000B1
:1001400010B5054C237833B9044B13B10448AFF311
:1001500000800123237010BD4404402000000000F3
:10016000801240000C4B43B10C480D4910B5AFF361
:1001700000800C48036823B910BD0A48036833B9EE
:100180007047094B002BF7D0BDE810401847064BCD
:10019000002BF5D0184700BF00000000801240007F
:1001A0004804402080124000000000002DE9F0418A
:1001B000044688460E4B9847054620460D4B984707
:1001C000054013D00C4C04F1600603E0B4420DD09E
:1001D00010345DB120684045F8D161682942F5D0FE
:1001E000E3689847636825EA0305EFE7BDE8F08117
:1001F000DD024000E10240006004402008B50A2111
:100200000148024B984708BD000E0E40AD0140006A
:1002100008B50B210148024B984708BD00100E405D
:10022000AD01400008B510210148024B984708BDB8
:1002300000140E40AD01400030B443F69924056926
:1002400015F0020F03D1013CF9D101200CE0446804
:1002500014F0020F06D0120402F4702211430BB105
:1002600041F08071C160002030BC704710B510486B
:10027000104B98473E2100200F4B98470F4CA0474A
:100280000028FCD00E4B98470E4A0F4B9A620F4C39
:10029000A0470028FCD002200D4B984700200D4BB2
:1002A00098470D4B98470248024B984710BD00BF36
:1002B00000A3E1115506400081034000D503400032
:1002C000E5034000013F182000060E40F503400002
:1002D000E50240001D03400049054000C06C704726
:1002E000806C7047032811D0042812D002280CBF5C
:1002F0004FF480710021084A136B23F440730B43C1
:100300001363936E13F0080FFBD070474FF44071E6
:10031000F1E74FF40071EEE700060E40174A136B49
:1003200023F0700318431063936E13F0080F0AD183
:100330004FF4006311498A6E12F0080F03D1013B9C
:10034000F9D1012070470D4A136B23F0030343F0EA
:1003500002031363936E13F0080F0AD14FF4006386
:1003600006498A6E12F0080F05D1013BF9D1012030
:100370007047002070470020704700BF00060E4005
:10038000A0B90E48036A090289B20D4A1A400D4B02
:100390001343194301620246936E13F0010FFBD021
:1003A000064A116A084B0B431362704703490B6AF4
:1003B000064A1A40064B13430B62704700060E4074
:1003C000FCFFC8FF0100370000003701FCFFC8FE3A
:1003D00002003701024B986E00F48030704700BF76
:1003E00000060E404FF00052014B9A62704700BF6A
:1003F00000060E40024B986E00F00200704700BFEE
:1004000000060E403F281ED81F280CD8114B9A69B1
:1004100001238340934318D0012303FA00F00D4BCE
:1004200018610020704720380A4BD3F808210123B7
:10043000834093430BD0012303FA00F0054BC3F82C
:100440000001002070470120704700207047002005
:10045000704700BF00060E404FF4004303600023C6
:100460004360036143618361C361704741627047C8
:100470008162036A7047006A7047006BC0B27047C0
:100480004163704700EB8111CB6D53680B66936835
:100490004B66136823F07F430B671369C3F30B03A9
:1004A0004B675369CB67936923F07F43C1F8803072
:1004B000D36923F07F43C1F88430D3688B677047DA
:1004C0007047FEE708B5174B174A9A4210D0174BF2
:1004D000144A9A420CD2013B9B1A23F003030433C3
:1004E0001344114951F8040B42F8040B9A42F9D114
:1004F0000F4B104A9A420AD2013B9B1A23F0030386
:1005000004331344002142F8041B9342FBD10A4AEE
:100510000A4B23F07F039360094B9847094B984798
:10052000FEE700BF0000402080124000440440204D
:10053000500B40204404402000ED00E0000040004B
:10054000E9104000B50D40003B4B1B6B03F003036B
:10055000012B1DD083B1022B36D0374B1B6B03F020
:100560007003702B5FD0344B1A6B3449C2F3021204
:100570000B68D3400B607047314B5B6913F0800F01
:1005800014BF4FF400424FF4FA422C4B1A60E4E7D8
:10059000294B1B6A13F0807F03D02A4A274B1A602D
:1005A000DBE7294A254B1A60234B1B6A03F07003D3
:1005B000102B05D0202BD0D1224A204B1A60CCE73B
:1005C000224A1E4B1A60C8E71B4B1B6A13F0807F40
:1005D00016D01C4A194B1A60174B1B6B03F0030310
:1005E000022BBAD1144A916A926A1448C1F30A41A3
:1005F000036801FB0333D2B2B3FBF2F30360ACE751
:10060000114A0E4B1A600C4B1B6A03F07003102B3F
:1006100005D0202BE0D10B4A084B1A60DCE70B4ACF
:10062000064B1A60D8E7054A13680949A1FB031372
:100630005B081360704700BF00060E4004004020B6
:1006400010180E40001BB70000093D0000127A0090
:10065000ABAAAAAA164B984213D9164B984215D9A1
:10066000154B984216D9154B984217D9144B9842FE
:1006700018D9144B984294BF134A144A144B1A6069
:1006800070474FF08062124B1A607047114A104B4E
:100690001A607047104A0E4B1A6070470F4A0C4B95
:1006A0001A6070474FF00422094B1A60704700BF70
:1006B000BFF35E017FE7BD023FDB1C04FFCE7B057D
:1006C000BFC2DA067FB63908000500040006000440
:1006D000000C0E40000100040002000400030004AE
:1006E0002DE9F84306461C4A4FF02209C2F8009053
:1006F0001A4D2B7803EB0313194901EB8303536065
:1007000000F10C039360174BD36000241461546113
:100710009461D461144F21463846DFF85C80C047AD
:10072000124AC2F800902B7803EB0313104901EB37
:1007300083039360083656600E4BD3601461546196
:100740009461D46101213846C0472B78013303F00E
:1007500003032B70BDE8F88304094020E204402025
:10076000280640201148010100800740E40840208D
:1007700008054020012804028504400010B53A20F5
:10078000134B9847134B1B88134A128892B212FAE4
:1007900083F35B10114A1360114C237803EB43037E
:1007A000104901EB431353600F4B93600F4BD36021
:1007B0000023136153619361D36102210C480D4BF7
:1007C00098472378013303F00303237010BD00BF63
:1007D00005044000E008402010004020C0084020F0
:1007E000BD0840203807402024400040115001201F
:1007F000008007408504400000220B4B1A600B4B21
:100800001A680B4BB3FBF2F3013BB3F1807F09D2C3
:10081000084A5360E021084B83F8231000239360BB
:1008200007231360704700BFD00440200C00402015
:1008300000A3E11110E000E000ED00E0134B1B7895
:1008400033B1F0B40025124C4FF468460F4F15E059
:100850007047831824F813600132222A08D093B21B
:100860001F2BF6D81B029BB2811824F81130F3E736
:100870000135EDB23B78DBB2AB4204D9002205EB87
:1008800005104000EBE7F0BC704700BF08004020B7
:10089000280640202DE9F0434FF0000C134E144D74
:1008A000E046E146DFF84CE04AF6AA2733882A887A
:1008B00092B212FA83F3002B11DD42464B460CEB49
:1008C0004C04240122442EF8127001339BB21A46C4
:1008D0003188288880B210FA81F18B42F2DB0CF16A
:1008E000010CBCF1040FE1D1BDE8F083E008402029
:1008F0001000402038074020F8B5384D01230E2263
:1009000048F2DE012846364CA04701230E2248F269
:1009100002112846A04701230E2248F2042128464E
:10092000A04701230E2248F202312846A0470123A6
:100930000E2248F29B412846A04701230E2248F68A
:1009400011012846A04701230E224FF409412846F1
:10095000A04701230E2248F617212846A04701236D
:100960000E224FF40B412846A04701230E2248F6E1
:1009700023412846A04701230E2248F6115128465C
:10098000A04701230E2248F6FF612846A047012315
:100990000E2248F6FF712846A04701230E2249F295
:1009A000FF012846A04701230E2249F2FF112846E5
:1009B000A04701230E224FF4AA412846A04709244C
:1009C0002F460126064D33460E224FF46841384625
:1009D000A847631E13F0FF04F5D1F8BD0080004066
:1009E00039024000264B597902291ED0032945D0EF
:1009F00010B5012932D0234B1B68002B38D0214B76
:100A00001B68012B2DD1204A1378DBB289B21F4815
:100A100020F813101378013303F00F0313701C4AEE
:100A200013780133DBB213701BE00023154A136007
:100A300018490A6822F001020A60174A1360174A2F
:100A40001370174A1370124A1370164A1370164A1D
:100A50001370164A1370164A13607047094B1B68CF
:100A600003B110BD0122074B1A60124B984710BD0D
:100A700001230E221048114CA04710BD704700BF43
:100A800024094020D804402005054020E4044020EB
:100A90000405402010E000E0DC044020E104402098
:100AA000E2044020BE084020BD084020BC08402091
:100AB000D0044020F9074000008000403902400087
:100AC00008B5474B4FF480121A66C3F890205A6558
:100AD0005A62C3F88020196F11431967596F21F4C6
:100AE000801159675A604FF400121A66C3F89020BB
:100AF0005A655A62C3F88020196F11431967596FFC
:100B000021F4001159675A604FF480021A66C3F845
:100B100090205A655A62C3F88020196F11431967F3
:100B2000596F21F4800159675A60A3F5806304224C
:100B30001A66C3F890205A655A62C3F88020196F6C
:100B400011431967596F114359675A601520254B96
:100B50009847254B02221A6080221A604FF080725B
:100B60001A605A6842F001025A605A6842F0100254
:100B70005A605A6822F470225A605A6842F460221D
:100B80005A601A6B22F001021A631A6B42F00202D9
:100B90001A631A6B42F004021A631A6B22F0F00215
:100BA0001A631A6B42F080021A631A6B22F47F42B6
:100BB0001A631A6B42F410621A631A6B92B21A63C8
:100BC0001A6B42F080721A635A6822F07F425A60B0
:100BD0005A6842F080525A6001221A6008BD00BF74
:100BE00000140E40050440000080004008B5254B6D
:100BF0004FF480621A66C3F890205A655A62C3F8AF
:100C00008020196F21F480611967596F114359676A
:100C10005A60A3F5806301221A66C3F890205A65D2
:100C20005A62C3F88020196F11431967596F114335
:100C300059675A6002221A66C3F890205A655A62B0
:100C4000C3F88020196F11431967596F1143596711
:100C50005A6016200C4B98474FF040200B4B98479A
:100C60004FF040234FF400721A609969084A0A4312
:100C70009A61D969074A0A43DA611A6842F48072B4
:100C80001A6008BD00140E400504400059044000DD
:100C900002001000BF0FCF00F0B53A4B1B883A4A54
:100CA00013683A4B1B78106839490C88A4B203EBDF
:100CB000430300EB0313374820F813400B8801333C
:100CC0009BB20B8013680133136004212F4F104631
:100CD000314E324D2F4C3A78D0F800E0337803EBA8
:100CE000031301EB430335F813309BB202EB4202CE
:100CF0000EEB021224F81230036801330360013155
:100D00002229E8D1214B1B781F4A106824490C88FE
:100D1000A4B203EB430300EB03131E4820F8134077
:100D20000B8801339BB20B801368013313601A499F
:100D30000B78013303F003030B701A490B78013B66
:100D4000DBB20B700F4B1B881749098889B21268F8
:100D500011FA83F3934213D8144A136801331360D2
:100D6000084B1B889BB2084A1360084A137801336A
:100D700003F0030313700E4A13780133DBB21370D0
:100D8000F0BD00BFE0084020B8084020BE08402069
:100D9000D404402038074020E104402008054020CA
:100DA000D6044020E004402010004020DC04402015
:100DB000BC08402070B54FF40042304B5A6001240B
:100DC0002F4B1C70BFF35F8F62B62E4B98472E4B94
:100DD00098472E4B98472E4B98472E4B98472E4BB3
:100DE00098472E4B98473A202D4DA8472D482E4B1B
:100DF00098472E4B98472E4B4FF08062C3F88421C2
:100E0000C3F88420202183F83A135A600A20A847A7
:100E1000284B4FF080521A61C3F8A0201A63264B6A
:100E20001C60264B9847264D264E274C2B7813BB2B
:100E30002378002BFAD0254B1B78002BF6D101220A
:100E4000224B1A70224B1B689BB24FF040214B6320
:100E5000204B0021C3F8EC10C3F8D0200422DA6044
:100E6000DA612378013BDBB223701B4A137801332C
:100E7000DBB21370DAE7B047DAE700BF50180E4074
:100E8000000040206D024000C1044000C10A400043
:100E9000F9084000ED0B4000950840003D08400077
:100EA0000504400000800040E10640007D0740004E
:100EB00000E100E0000E0E40D8044020F907400099
:100EC000E0044020990C4000BC084020BF084020AE
:100ED000DC044020008007400605402038B53C482F
:100EE0003C4B9847044610F0100F02D03A4B1B7948
:100EF00063B104F03203122B1AD040F60503A3436A
:100F00003ED004F03003102B4CD038BD304D1021B2
:100F10002846324B984740F622512846304B984796
:100F20002D4B1A7901321A7100221A805A80E0E79B
:100F3000294B1B79012B0ED0022B16D0264C25886D
:100F400063881D442248274B98472544687163886D
:100F50000133638038BD1E48224B98471E4B000268
:100F600018801A7901321A7138BD19481D4B9847FB
:100F7000194B1A88104318801A7901321A7138BD3A
:100F8000154B00225A801A711A80114C10212046EC
:100F9000134B984740F622512046104B9847124B6E
:100FA000984738BD0C4B1B79032BAED104F48474E5
:100FB000082CAAD1084C2388628823441344597909
:100FC00003480A4B98476388013363809DE700BF5D
:100FD00000C0014077044000240940207104400013
:100FE0006D0440007B044000E5094000810440009E
:100FF00038B5164B9A69D3F89C20D3F8DC40DB6DEA
:1010000012F0010F06D00122114B1A70114B1B6810
:10101000934203D014F0010F0ED138BD0E4A13785D
:101020000133DBB21370094B02221A6201221A62E9
:101030000A480B4B9847EDE70422044B1A62094C0F
:1010400000252570084B98472570E6E7008007408B
:1010500006054020D8044020E004402000800040E5
:10106000E1064000BF0840207D074000164B1B688A
:1010700013F4806F08D04FF08052144B1A63144B56
:101080001B68012B05D070474FF080520F4B5A63FD
:10109000F5E70D4A1368013313600E4B1B78DBB282
:1010A00011680D4A42F823100C4B0021D966012229
:1010B0001A65DA60DA61C3F8AC10C3F89020022236
:1010C000DA60DA61DFE700BFD0044020000E0E4096
:1010D000D8044020E2044020180640200080074049
:1010E000FEE7FEE7FEE7000070B50F4E0F4D761BE2
:1010F000B61018BF002405D0013455F8043B9847BA
:10110000A642F9D10A4E0B4D761B00F0A7F8B61097
:1011100018BF002406D0013455F8043B9847A64276
:10112000F9D170BD70BD00BF681240006812400068
:101130007012400068124000024B13B1024800F0E8
:1011400005B8704700000000591140000023014617
:101150001A46184600F01EB838B50A4C0A4D641BF2
:10116000A4100AD004F18043013B05EB8305013C48
:1011700055F804399847002CF9D1BDE8384000F003
:1011800077B800BF801240007C124000704700BF5B
:10119000704700BF2DE9F8432C4D06462868984655
:1011A0000F469146FFF7F2FF294B1C68D4F84831EF
:1011B000002B3ED05A681F2A1CDC02F1010E76B1CA
:1011C00003EB82010124C1F88890D3F88801944090
:1011D0002043022EC3F88801C1F8088123D00232CF
:1011E000C3F804E0286843F82270FFF7D1FF00201D
:1011F000BDE8F883174B0BB34FF4C870AFF3008012
:101200000346D8B1D4F848210260002141600A4663
:10121000C4F848014FF0010EC0F88811C0F88C11D5
:10122000002EDCD0CCE7D3F88C110C43C3F88C41F2
:10123000D5E704F5A673C4F84831BBE72868FFF783
:10124000A7FF4FF0FF30BDE8F88300BF4004402007
:10125000581240000000000018004020F8B500BF00
:10126000F8BC08BC9E46704739114000650140003B
:10127000F8B500BFF8BC08BC9E467047410140006D
:101280000100000000093D0004000000204E0000A5
:1012900020000000000000000000000004034020C7
:1012A0006C034020D4034020000000000000000038
:1012B000000000000000000000000000000000002E
:1012C000000000000000000000000000000000001E
:1012D000000000000000000000000000000000000E
:1012E00000000000000000000000000000000000FE
:1012F00000000000000000000000000000000000EE
:1013000000000000000000000000000000000000DD
:1013100000000000000000000000000000000000CD
:1013200000000000000000000000000000000000BD
:1013300000000000000000000000000000000000AD
:1013400001000000000000000E33CDAB34126DE64A
:10135000ECDE05000B0000000000000000000000B3
:10136000000000000000000000000000000000007D
:10137000000000000000000000000000000000006D
:10138000000000000000000000000000000000005D
:10139000000000000000000000000000000000004D
:0416C0002C0B40208F
:04000005004004C5EE
:00000001FF
